{
  "_format": "hh-sol-artifact-1",
  "contractName": "MonadSwapAggregator",
  "sourceName": "contracts/MonadSwapAggregator.sol",
  "abi": [
    {
      "anonymous": false,
      "inputs": [
        {
          "indexed": true,
          "internalType": "address",
          "name": "user",
          "type": "address"
        },
        {
          "indexed": true,
          "internalType": "address",
          "name": "fromToken",
          "type": "address"
        },
        {
          "indexed": true,
          "internalType": "address",
          "name": "toToken",
          "type": "address"
        },
        {
          "indexed": false,
          "internalType": "uint256",
          "name": "amountIn",
          "type": "uint256"
        },
        {
          "indexed": false,
          "internalType": "uint256",
          "name": "amountOut",
          "type": "uint256"
        }
      ],
      "name": "TokenSwapped",
      "type": "event"
    },
    {
      "inputs": [],
      "name": "BEAN_ROUTER",
      "outputs": [
        {
          "internalType": "contract IBeanRouter",
          "name": "",
          "type": "address"
        }
      ],
      "stateMutability": "view",
      "type": "function"
    },
    {
      "inputs": [],
      "name": "WMON",
      "outputs": [
        {
          "internalType": "address",
          "name": "",
          "type": "address"
        }
      ],
      "stateMutability": "view",
      "type": "function"
    },
    {
      "inputs": [
        {
          "internalType": "address",
          "name": "fromToken",
          "type": "address"
        },
        {
          "internalType": "address",
          "name": "toToken",
          "type": "address"
        },
        {
          "internalType": "uint256",
          "name": "amountIn",
          "type": "uint256"
        }
      ],
      "name": "getAmountOut",
      "outputs": [
        {
          "internalType": "uint256",
          "name": "amountOut",
          "type": "uint256"
        }
      ],
      "stateMutability": "view",
      "type": "function"
    },
    {
      "inputs": [
        {
          "internalType": "address",
          "name": "fromToken",
          "type": "address"
        },
        {
          "internalType": "address",
          "name": "toToken",
          "type": "address"
        },
        {
          "internalType": "uint256",
          "name": "amountIn",
          "type": "uint256"
        },
        {
          "internalType": "uint256",
          "name": "amountOutMin",
          "type": "uint256"
        }
      ],
      "name": "swap",
      "outputs": [
        {
          "internalType": "uint256",
          "name": "amountOut",
          "type": "uint256"
        }
      ],
      "stateMutability": "payable",
      "type": "function"
    },
    {
      "stateMutability": "payable",
      "type": "receive"
    }
  ],
  "bytecode": "0x608060405234801561001057600080fd5b5061109a806100206000396000f3fe6080604052600436106100435760003560e01c80634aa066521461004f578063b9aade1c14610082578063f1435d29146100c2578063fe029156146100ea57600080fd5b3661004a57005b600080fd5b34801561005b57600080fd5b5061006f61006a366004610dc3565b6100fd565b6040519081526020015b60405180910390f35b34801561008e57600080fd5b506100aa73ca810d095e90daae6e867c19df6d9a8c56db2c8981565b6040516001600160a01b039091168152602001610079565b3480156100ce57600080fd5b506100aa73760afe86e5de5fa0ee542fc7b7b713e1c542570181565b61006f6100f8366004610dff565b6103ad565b600060606001600160a01b0385166101275773760afe86e5de5fa0ee542fc7b7b713e1c542570194505b6001600160a01b03841661014d5773760afe86e5de5fa0ee542fc7b7b713e1c542570193505b6001600160a01b03851673760afe86e5de5fa0ee542fc7b7b713e1c5425701148061019457506001600160a01b03841673760afe86e5de5fa0ee542fc7b7b713e1c5425701145b1561022657604080516002808252606082018352909160208301908036833701905050905084816000815181106101cd576101cd610e57565b60200260200101906001600160a01b031690816001600160a01b031681525050838160018151811061020157610201610e57565b60200260200101906001600160a01b031690816001600160a01b0316815250506102f8565b604080516003808252608082019092529060208201606080368337019050509050848160008151811061025b5761025b610e57565b60200260200101906001600160a01b031690816001600160a01b03168152505073760afe86e5de5fa0ee542fc7b7b713e1c5425701816001815181106102a3576102a3610e57565b60200260200101906001600160a01b031690816001600160a01b03168152505083816002815181106102d7576102d7610e57565b60200260200101906001600160a01b031690816001600160a01b0316815250505b60405163d06ca61f60e01b815260009073ca810d095e90daae6e867c19df6d9a8c56db2c899063d06ca61f906103349087908690600401610eb1565b600060405180830381865afa158015610351573d6000803e3d6000fd5b505050506040513d6000823e601f3d908101601f191682016040526103799190810190610eca565b9050806001825161038a9190610f9e565b8151811061039a5761039a610e57565b6020026020010151925050509392505050565b60008083116103f85760405162461bcd60e51b81526020600482015260126024820152710416d6f756e74206d757374206265203e20360741b60448201526064015b60405180910390fd5b836001600160a01b0316856001600160a01b0316036104475760405162461bcd60e51b815260206004820152600b60248201526a53616d6520746f6b656e7360a81b60448201526064016103ef565b6001600160a01b0385166104ab578234146104995760405162461bcd60e51b8152602060048201526012602482015271125b9d985b1a59081353d388185b5bdd5b9d60721b60448201526064016103ef565b6104a48484846104d8565b90506104d0565b6001600160a01b0384166104c4576104a485848461069b565b6104a48585858561098c565b949350505050565b6040805160028082526060820183526000928392919060208301908036833701905050905073760afe86e5de5fa0ee542fc7b7b713e1c54257018160008151811061052557610525610e57565b60200260200101906001600160a01b031690816001600160a01b031681525050848160018151811061055957610559610e57565b6001600160a01b0390921660209283029190910190910152600073ca810d095e90daae6e867c19df6d9a8c56db2c89637ff36ab58686853361059d426104b0610fb7565b6040518663ffffffff1660e01b81526004016105bc9493929190610fca565b60006040518083038185885af11580156105da573d6000803e3d6000fd5b50505050506040513d6000823e601f3d908101601f191682016040526106039190810190610eca565b9050600081600183516106169190610f9e565b8151811061062657610626610e57565b60200260200101519050866001600160a01b031660006001600160a01b0316336001600160a01b03167fd36cc53ba71bc76a3db3364981f5296dd4ca5eba0e8c89874f2170515bd20d248985604051610689929190918252602082015260400190565b60405180910390a49695505050505050565b6040516323b872dd60e01b8152336004820152306024820152604481018390526000906001600160a01b038516906323b872dd906064016020604051808303816000875af11580156106f1573d6000803e3d6000fd5b505050506040513d601f19601f820116820180604052508101906107159190610fff565b6107585760405162461bcd60e51b8152602060048201526014602482015273151c985b9cd9995c88199c9bdb4819985a5b195960621b60448201526064016103ef565b60405163095ea7b360e01b815273ca810d095e90daae6e867c19df6d9a8c56db2c896004820152602481018490526001600160a01b0385169063095ea7b3906044016020604051808303816000875af11580156107b9573d6000803e3d6000fd5b505050506040513d601f19601f820116820180604052508101906107dd9190610fff565b50604080516002808252606082018352600092602083019080368337019050509050848160008151811061081357610813610e57565b60200260200101906001600160a01b031690816001600160a01b03168152505073760afe86e5de5fa0ee542fc7b7b713e1c54257018160018151811061085b5761085b610e57565b6001600160a01b0390921660209283029190910190910152600073ca810d095e90daae6e867c19df6d9a8c56db2c896318cbafe58686853361089f426104b0610fb7565b6040518663ffffffff1660e01b81526004016108bf959493929190611028565b6000604051808303816000875af11580156108de573d6000803e3d6000fd5b505050506040513d6000823e601f3d908101601f191682016040526109069190810190610eca565b9050600081600183516109199190610f9e565b8151811061092957610929610e57565b6020026020010151905060006001600160a01b0316876001600160a01b0316336001600160a01b03167fd36cc53ba71bc76a3db3364981f5296dd4ca5eba0e8c89874f2170515bd20d248985604051610689929190918252602082015260400190565b6040516323b872dd60e01b8152336004820152306024820152604481018390526000906001600160a01b038616906323b872dd906064016020604051808303816000875af11580156109e2573d6000803e3d6000fd5b505050506040513d601f19601f82011682018060405250810190610a069190610fff565b610a495760405162461bcd60e51b8152602060048201526014602482015273151c985b9cd9995c88199c9bdb4819985a5b195960621b60448201526064016103ef565b60405163095ea7b360e01b815273ca810d095e90daae6e867c19df6d9a8c56db2c896004820152602481018490526001600160a01b0386169063095ea7b3906044016020604051808303816000875af1158015610aaa573d6000803e3d6000fd5b505050506040513d601f19601f82011682018060405250810190610ace9190610fff565b5060606001600160a01b03861673760afe86e5de5fa0ee542fc7b7b713e1c54257011480610b1857506001600160a01b03851673760afe86e5de5fa0ee542fc7b7b713e1c5425701145b15610baa5760408051600280825260608201835290916020830190803683370190505090508581600081518110610b5157610b51610e57565b60200260200101906001600160a01b031690816001600160a01b0316815250508481600181518110610b8557610b85610e57565b60200260200101906001600160a01b031690816001600160a01b031681525050610c7c565b6040805160038082526080820190925290602082016060803683370190505090508581600081518110610bdf57610bdf610e57565b60200260200101906001600160a01b031690816001600160a01b03168152505073760afe86e5de5fa0ee542fc7b7b713e1c542570181600181518110610c2757610c27610e57565b60200260200101906001600160a01b031690816001600160a01b0316815250508481600281518110610c5b57610c5b610e57565b60200260200101906001600160a01b031690816001600160a01b0316815250505b600073ca810d095e90daae6e867c19df6d9a8c56db2c896338ed173986868533610ca8426104b0610fb7565b6040518663ffffffff1660e01b8152600401610cc8959493929190611028565b6000604051808303816000875af1158015610ce7573d6000803e3d6000fd5b505050506040513d6000823e601f3d908101601f19168201604052610d0f9190810190610eca565b905060008160018351610d229190610f9e565b81518110610d3257610d32610e57565b60200260200101519050866001600160a01b0316886001600160a01b0316336001600160a01b03167fd36cc53ba71bc76a3db3364981f5296dd4ca5eba0e8c89874f2170515bd20d248985604051610d94929190918252602082015260400190565b60405180910390a4979650505050505050565b80356001600160a01b0381168114610dbe57600080fd5b919050565b600080600060608486031215610dd857600080fd5b610de184610da7565b9250610def60208501610da7565b9150604084013590509250925092565b60008060008060808587031215610e1557600080fd5b610e1e85610da7565b9350610e2c60208601610da7565b93969395505050506040820135916060013590565b634e487b7160e01b600052604160045260246000fd5b634e487b7160e01b600052603260045260246000fd5b600081518084526020808501945080840160005b83811015610ea65781516001600160a01b031687529582019590820190600101610e81565b509495945050505050565b8281526040602082015260006104d06040830184610e6d565b60006020808385031215610edd57600080fd5b825167ffffffffffffffff80821115610ef557600080fd5b818501915085601f830112610f0957600080fd5b815181811115610f1b57610f1b610e41565b8060051b604051601f19603f83011681018181108582111715610f4057610f40610e41565b604052918252848201925083810185019188831115610f5e57600080fd5b938501935b82851015610f7c57845184529385019392850192610f63565b98975050505050505050565b634e487b7160e01b600052601160045260246000fd5b81810381811115610fb157610fb1610f88565b92915050565b80820180821115610fb157610fb1610f88565b848152608060208201526000610fe36080830186610e6d565b6001600160a01b03949094166040830152506060015292915050565b60006020828403121561101157600080fd5b8151801515811461102157600080fd5b9392505050565b85815284602082015260a06040820152600061104760a0830186610e6d565b6001600160a01b039490941660608301525060800152939250505056fea2646970667358221220b0a91059631e41347a5f8d8bccd76d4ff0be0a4a3c7177d17c1930ccf6b93cc564736f6c63430008130033",
  "linkReferences": {},
  "deployedLinkReferences": {}
}