{
  "_format": "hh-sol-artifact-1",
  "contractName": "MonadSwap",
  "sourceName": "contracts/MonadSwap.sol",
  "abi": [
    {
      "inputs": [],
      "stateMutability": "nonpayable",
      "type": "constructor"
    },
    {
      "anonymous": false,
      "inputs": [
        {
          "indexed": false,
          "internalType": "string",
          "name": "message",
          "type": "string"
        },
        {
          "indexed": false,
          "internalType": "uint256",
          "name": "value",
          "type": "uint256"
        }
      ],
      "name": "Debug",
      "type": "event"
    },
    {
      "anonymous": false,
      "inputs": [
        {
          "indexed": false,
          "internalType": "string",
          "name": "message",
          "type": "string"
        },
        {
          "indexed": false,
          "internalType": "address",
          "name": "value",
          "type": "address"
        }
      ],
      "name": "DebugAddress",
      "type": "event"
    },
    {
      "anonymous": false,
      "inputs": [
        {
          "indexed": false,
          "internalType": "string",
          "name": "message",
          "type": "string"
        },
        {
          "indexed": false,
          "internalType": "address",
          "name": "token",
          "type": "address"
        },
        {
          "indexed": false,
          "internalType": "uint256",
          "name": "balance",
          "type": "uint256"
        }
      ],
      "name": "DebugBalance",
      "type": "event"
    },
    {
      "anonymous": false,
      "inputs": [
        {
          "indexed": true,
          "internalType": "address",
          "name": "user",
          "type": "address"
        },
        {
          "indexed": true,
          "internalType": "address",
          "name": "fromToken",
          "type": "address"
        },
        {
          "indexed": true,
          "internalType": "address",
          "name": "toToken",
          "type": "address"
        },
        {
          "indexed": false,
          "internalType": "uint256",
          "name": "amountIn",
          "type": "uint256"
        },
        {
          "indexed": false,
          "internalType": "uint256",
          "name": "amountOut",
          "type": "uint256"
        }
      ],
      "name": "TokenSwapped",
      "type": "event"
    },
    {
      "inputs": [
        {
          "internalType": "address",
          "name": "token1",
          "type": "address"
        },
        {
          "internalType": "address",
          "name": "token2",
          "type": "address"
        }
      ],
      "name": "addPair",
      "outputs": [],
      "stateMutability": "nonpayable",
      "type": "function"
    },
    {
      "inputs": [
        {
          "internalType": "address",
          "name": "token",
          "type": "address"
        },
        {
          "internalType": "uint256",
          "name": "amount",
          "type": "uint256"
        }
      ],
      "name": "depositToken",
      "outputs": [],
      "stateMutability": "nonpayable",
      "type": "function"
    },
    {
      "inputs": [
        {
          "internalType": "address",
          "name": "token",
          "type": "address"
        }
      ],
      "name": "emergencyWithdraw",
      "outputs": [],
      "stateMutability": "nonpayable",
      "type": "function"
    },
    {
      "inputs": [
        {
          "internalType": "address",
          "name": "",
          "type": "address"
        },
        {
          "internalType": "address",
          "name": "",
          "type": "address"
        }
      ],
      "name": "exchangeRates",
      "outputs": [
        {
          "internalType": "uint256",
          "name": "",
          "type": "uint256"
        }
      ],
      "stateMutability": "view",
      "type": "function"
    },
    {
      "inputs": [],
      "name": "owner",
      "outputs": [
        {
          "internalType": "address",
          "name": "",
          "type": "address"
        }
      ],
      "stateMutability": "view",
      "type": "function"
    },
    {
      "inputs": [
        {
          "internalType": "address",
          "name": "fromToken",
          "type": "address"
        },
        {
          "internalType": "address",
          "name": "toToken",
          "type": "address"
        },
        {
          "internalType": "uint256",
          "name": "rate",
          "type": "uint256"
        }
      ],
      "name": "setRate",
      "outputs": [],
      "stateMutability": "nonpayable",
      "type": "function"
    },
    {
      "inputs": [
        {
          "internalType": "address",
          "name": "",
          "type": "address"
        },
        {
          "internalType": "address",
          "name": "",
          "type": "address"
        }
      ],
      "name": "supportedPairs",
      "outputs": [
        {
          "internalType": "bool",
          "name": "",
          "type": "bool"
        }
      ],
      "stateMutability": "view",
      "type": "function"
    },
    {
      "inputs": [
        {
          "internalType": "address",
          "name": "fromToken",
          "type": "address"
        },
        {
          "internalType": "address",
          "name": "toToken",
          "type": "address"
        },
        {
          "internalType": "uint256",
          "name": "amountIn",
          "type": "uint256"
        }
      ],
      "name": "swap",
      "outputs": [
        {
          "internalType": "uint256",
          "name": "amountOut",
          "type": "uint256"
        }
      ],
      "stateMutability": "nonpayable",
      "type": "function"
    }
  ],
  "bytecode": "0x608060405234801561001057600080fd5b50600280546001600160a01b031916331790557fc5d8380cf06dac81a1323eb2ab261714b22eeefaf3a5de6124ebf80a509aaa9e805460ff1990811660019081179092557fbb212a941503401be0749faa34a9ad1b6b4bec5458ccba3f6c82b7ecea2baf3080548216831790557fbc54a718b749489a6309c15bb3d7356ebcad7a95873e1405da9f5d779eb641af80548216831790557f65ec0b5ebf515d44b39a20a5455caab4cb7cc8364fe208144939186c161a14d380548216831790557f2899f72357ab3f4e0286d7f21d84bfb54b0192f9636394877f08b56130f88d2e80548216831790557fcaf3791dfa825eb324d2562b35952dae2ac8b41a88451ceb0ff53c975658962e80549091169091179055670de0b6b3a76400007ff8a602df034a24cbd19e8c8d150d57c93b2dd44802282b8f0ed7e64229641f0b8190557f65b8e533c374a5df6ea334bf001e6d0c82d1616b621f2b24e40b9252e9efc7cf55686c6b935b8bbd4000007fc7e8202a656d18d466857f2a270d4bb5d393e392df17f280d24d43f61acea0a78190556601c6bf526340007f36883382546220f8b44d308e1173f896b51d3fbdf8f74210c1dba992fed9387b8190557f3f42a4b186ae93f9e9868c550aea5085f99a2d4af7ced86f926eafa94433b5b89190915573b5a30b0fdc5ea94a52fdc42e3e9760cb8449fb3760009081527f471e427c21cfbf118eb406487cbb3ca172120f645c6d51553751e8a377cc07b96020527ff5c5a2f58edde5f2a6a84207bd4832dfa3b4483fb647fb616f40eaf908cf3f549190915561110f90819061026490396000f3fe608060405234801561001057600080fd5b50600436106100885760003560e01c80636ff1c9bc1161005b5780636ff1c9bc1461012e5780638da5cb5b14610141578063b6f3e0871461016c578063df791e501461017f57600080fd5b8063338b5dea1461008d578063461100bb146100a2578063503fa44f146100e25780635911fb9a1461011b575b600080fd5b6100a061009b366004610f53565b610192565b005b6100cd6100b0366004610f7d565b600060208181529281526040808220909352908152205460ff1681565b60405190151581526020015b60405180910390f35b61010d6100f0366004610f7d565b600160209081526000928352604080842090915290825290205481565b6040519081526020016100d9565b6100a0610129366004610fb0565b61033c565b6100a061013c366004610fec565b610392565b600254610154906001600160a01b031681565b6040516001600160a01b0390911681526020016100d9565b6100a061017a366004610f7d565b6104e2565b61010d61018d366004610fb0565b61055c565b6002546001600160a01b031633146101c55760405162461bcd60e51b81526004016101bc9061100e565b60405180910390fd5b6040516323b872dd60e01b8152336004820152306024820152604481018290526001600160a01b038316906323b872dd906064016020604051808303816000875af1158015610218573d6000803e3d6000fd5b505050506040513d601f19601f8201168201806040525081019061023c9190611031565b6102795760405162461bcd60e51b815260206004820152600e60248201526d11195c1bdcda5d0819985a5b195960921b60448201526064016101bc565b6040516370a0823160e01b81523060048201526000805160206110ba8339815191529083906001600160a01b038216906370a0823190602401602060405180830381865afa1580156102cf573d6000803e3d6000fd5b505050506040513d601f19601f820116820180604052508101906102f39190611053565b604080516060808252600f908201526e151bdad95b8811195c1bdcda5d1959608a1b60808201526001600160a01b03909316602084015282015260a00160405180910390a15050565b6002546001600160a01b031633146103665760405162461bcd60e51b81526004016101bc9061100e565b6001600160a01b0392831660009081526001602090815260408083209490951682529290925291902055565b6002546001600160a01b031633146103bc5760405162461bcd60e51b81526004016101bc9061100e565b6040516370a0823160e01b81523060048201526000906001600160a01b038316906370a0823190602401602060405180830381865afa158015610403573d6000803e3d6000fd5b505050506040513d601f19601f820116820180604052508101906104279190611053565b60025460405163a9059cbb60e01b81526001600160a01b0391821660048201526024810183905291925083169063a9059cbb906044016020604051808303816000875af115801561047c573d6000803e3d6000fd5b505050506040513d601f19601f820116820180604052508101906104a09190611031565b6104de5760405162461bcd60e51b815260206004820152600f60248201526e15da5d1a191c985dc819985a5b1959608a1b60448201526064016101bc565b5050565b6002546001600160a01b0316331461050c5760405162461bcd60e51b81526004016101bc9061100e565b6001600160a01b039182166000818152602081815260408083209490951682529283528381208054600160ff19918216811790925582855285832093835292909352929092208054909216179055565b60408051818152600a8183015269233937b6902a37b5b2b760b11b60608201526001600160a01b038516602082015290516000917fb3f7d6c63a62ab0e6ae5263ef1deb9c5a64f4689288c380db949c116314a5540919081900360800190a160408051818152600881830152672a37902a37b5b2b760c11b60608201526001600160a01b038516602082015290517fb3f7d6c63a62ab0e6ae5263ef1deb9c5a64f4689288c380db949c116314a55409181900360800190a1604080518181526009818301526820b6b7bab73a1024b760b91b60608201526020810184905290517f3c5ad147104e56be34a9176a6692f7df8d2f4b29a5af06bc6b98970d329d65779181900360800190a16001600160a01b038085166000908152602081815260408083209387168352929052205460ff166106ce5760405162461bcd60e51b815260206004820152601260248201527114185a5c881b9bdd081cdd5c1c1bdc9d195960721b60448201526064016101bc565b600082116107135760405162461bcd60e51b81526020600482015260126024820152710416d6f756e74206d757374206265203e20360741b60448201526064016101bc565b6040516370a0823160e01b81523060048201526000906001600160a01b038616906370a0823190602401602060405180830381865afa15801561075a573d6000803e3d6000fd5b505050506040513d601f19601f8201168201806040525081019061077e9190611053565b6040516370a0823160e01b81523060048201529091506000906001600160a01b038616906370a0823190602401602060405180830381865afa1580156107c8573d6000803e3d6000fd5b505050506040513d601f19601f820116820180604052508101906107ec9190611053565b604080516060808252601c908201527f436f6e74726163742046726f6d2042616c616e6365204265666f72650000000060808201526001600160a01b03891660208201529081018490529091506000805160206110ba8339815191529060a00160405180910390a1604080516060808252601a908201527f436f6e747261637420546f2042616c616e6365204265666f726500000000000060808201526001600160a01b03871660208201529081018290526000805160206110ba8339815191529060a00160405180910390a16040516370a0823160e01b81523360048201526000906001600160a01b038816906370a0823190602401602060405180830381865afa158015610900573d6000803e3d6000fd5b505050506040513d601f19601f820116820180604052508101906109249190611053565b60408051606080825260119082015270557365722046726f6d2042616c616e636560781b60808201526001600160a01b038a1660208201529081018290529091506000805160206110ba8339815191529060a00160405180910390a1848110156109c75760405162461bcd60e51b8152602060048201526014602482015273496e73756666696369656e742062616c616e636560601b60448201526064016101bc565b6001600160a01b038088166000908152600160209081526040808320938a1683529290522054670de0b6b3a764000090610a01908761106c565b610a0b9190611097565b935060008411610a525760405162461bcd60e51b8152602060048201526012602482015271125b9d985b1a5908185b5bdd5b9d081bdd5d60721b60448201526064016101bc565b60408051818152600a8183015269105b5bdd5b9d0813dd5d60b21b60608201526020810186905290517f3c5ad147104e56be34a9176a6692f7df8d2f4b29a5af06bc6b98970d329d65779181900360800190a183821015610af55760405162461bcd60e51b815260206004820152601d60248201527f496e73756666696369656e7420636f6e74726163742062616c616e636500000060448201526064016101bc565b6040516323b872dd60e01b8152336004820152306024820152604481018690526001600160a01b038816906323b872dd906064016020604051808303816000875af1158015610b48573d6000803e3d6000fd5b505050506040513d601f19601f82011682018060405250810190610b6c9190611031565b610baf5760405162461bcd60e51b8152602060048201526014602482015273151c985b9cd9995c88199c9bdb4819985a5b195960621b60448201526064016101bc565b6040516370a0823160e01b81523060048201526001600160a01b038816906370a0823190602401602060405180830381865afa158015610bf3573d6000803e3d6000fd5b505050506040513d601f19601f82011682018060405250810190610c179190611053565b6040805160608082526028908201527f436f6e74726163742046726f6d2042616c616e6365204166746572205472616e6080820152677366657246726f6d60c01b60a08201526001600160a01b038a1660208201529081018290529093506000805160206110ba8339815191529060c00160405180910390a160405163a9059cbb60e01b8152336004820152602481018590526001600160a01b0387169063a9059cbb906044016020604051808303816000875af1158015610cdd573d6000803e3d6000fd5b505050506040513d601f19601f82011682018060405250810190610d019190611031565b610d425760405162461bcd60e51b8152602060048201526012602482015271151c985b9cd9995c881d1bc819985a5b195960721b60448201526064016101bc565b6040516370a0823160e01b81523060048201526001600160a01b038816906370a0823190602401602060405180830381865afa158015610d86573d6000803e3d6000fd5b505050506040513d601f19601f82011682018060405250810190610daa9190611053565b6040516370a0823160e01b81523060048201529093506001600160a01b038716906370a0823190602401602060405180830381865afa158015610df1573d6000803e3d6000fd5b505050506040513d601f19601f82011682018060405250810190610e159190611053565b604080516060808252601b908201527f436f6e74726163742046726f6d2042616c616e6365204166746572000000000060808201526001600160a01b038a1660208201529081018590529092506000805160206110ba8339815191529060a00160405180910390a16040805160608082526019908201527f436f6e747261637420546f2042616c616e63652041667465720000000000000060808201526001600160a01b03881660208201529081018390526000805160206110ba8339815191529060a00160405180910390a160408051868152602081018690526001600160a01b0380891692908a169133917fd36cc53ba71bc76a3db3364981f5296dd4ca5eba0e8c89874f2170515bd20d24910160405180910390a45050509392505050565b80356001600160a01b0381168114610f4e57600080fd5b919050565b60008060408385031215610f6657600080fd5b610f6f83610f37565b946020939093013593505050565b60008060408385031215610f9057600080fd5b610f9983610f37565b9150610fa760208401610f37565b90509250929050565b600080600060608486031215610fc557600080fd5b610fce84610f37565b9250610fdc60208501610f37565b9150604084013590509250925092565b600060208284031215610ffe57600080fd5b61100782610f37565b9392505050565b6020808252600990820152682737ba1037bbb732b960b91b604082015260600190565b60006020828403121561104357600080fd5b8151801515811461100757600080fd5b60006020828403121561106557600080fd5b5051919050565b808202811582820484141761109157634e487b7160e01b600052601160045260246000fd5b92915050565b6000826110b457634e487b7160e01b600052601260045260246000fd5b50049056fe28d7b9b2f784cfd77a99878b6ee7ac54e22d1a1b3cd542a1992bc36993b213c1a2646970667358221220d5c3fadd5595677706f8b6afefd068a494321865fe892e9703deddd346383b3b64736f6c63430008130033",
  "linkReferences": {},
  "deployedLinkReferences": {}
}