{
  "_format": "hh-sol-artifact-1",
  "contractName": "MonadSwap",
  "sourceName": "contracts/MonadSwap.sol",
  "abi": [
    {
      "inputs": [],
      "stateMutability": "nonpayable",
      "type": "constructor"
    },
    {
      "anonymous": false,
      "inputs": [
        {
          "indexed": false,
          "internalType": "string",
          "name": "message",
          "type": "string"
        },
        {
          "indexed": false,
          "internalType": "uint256",
          "name": "value",
          "type": "uint256"
        }
      ],
      "name": "Debug",
      "type": "event"
    },
    {
      "anonymous": false,
      "inputs": [
        {
          "indexed": false,
          "internalType": "string",
          "name": "message",
          "type": "string"
        },
        {
          "indexed": false,
          "internalType": "address",
          "name": "value",
          "type": "address"
        }
      ],
      "name": "DebugAddress",
      "type": "event"
    },
    {
      "anonymous": false,
      "inputs": [
        {
          "indexed": false,
          "internalType": "string",
          "name": "message",
          "type": "string"
        },
        {
          "indexed": false,
          "internalType": "address",
          "name": "token",
          "type": "address"
        },
        {
          "indexed": false,
          "internalType": "uint256",
          "name": "balance",
          "type": "uint256"
        }
      ],
      "name": "DebugBalance",
      "type": "event"
    },
    {
      "anonymous": false,
      "inputs": [
        {
          "indexed": true,
          "internalType": "address",
          "name": "token",
          "type": "address"
        },
        {
          "indexed": false,
          "internalType": "uint256",
          "name": "amount",
          "type": "uint256"
        },
        {
          "indexed": false,
          "internalType": "address",
          "name": "feeCollector",
          "type": "address"
        }
      ],
      "name": "FeeCollected",
      "type": "event"
    },
    {
      "anonymous": false,
      "inputs": [
        {
          "indexed": true,
          "internalType": "address",
          "name": "user",
          "type": "address"
        },
        {
          "indexed": true,
          "internalType": "address",
          "name": "fromToken",
          "type": "address"
        },
        {
          "indexed": true,
          "internalType": "address",
          "name": "toToken",
          "type": "address"
        },
        {
          "indexed": false,
          "internalType": "uint256",
          "name": "amountIn",
          "type": "uint256"
        },
        {
          "indexed": false,
          "internalType": "uint256",
          "name": "amountOut",
          "type": "uint256"
        },
        {
          "indexed": false,
          "internalType": "uint256",
          "name": "feeAmount",
          "type": "uint256"
        }
      ],
      "name": "TokenSwapped",
      "type": "event"
    },
    {
      "inputs": [],
      "name": "FEE_COLLECTOR",
      "outputs": [
        {
          "internalType": "address",
          "name": "",
          "type": "address"
        }
      ],
      "stateMutability": "view",
      "type": "function"
    },
    {
      "inputs": [],
      "name": "FEE_DENOMINATOR",
      "outputs": [
        {
          "internalType": "uint256",
          "name": "",
          "type": "uint256"
        }
      ],
      "stateMutability": "view",
      "type": "function"
    },
    {
      "inputs": [],
      "name": "FEE_PERCENTAGE",
      "outputs": [
        {
          "internalType": "uint256",
          "name": "",
          "type": "uint256"
        }
      ],
      "stateMutability": "view",
      "type": "function"
    },
    {
      "inputs": [
        {
          "internalType": "address",
          "name": "token1",
          "type": "address"
        },
        {
          "internalType": "address",
          "name": "token2",
          "type": "address"
        }
      ],
      "name": "addPair",
      "outputs": [],
      "stateMutability": "nonpayable",
      "type": "function"
    },
    {
      "inputs": [
        {
          "internalType": "uint256",
          "name": "amount",
          "type": "uint256"
        }
      ],
      "name": "calculateFee",
      "outputs": [
        {
          "internalType": "uint256",
          "name": "",
          "type": "uint256"
        }
      ],
      "stateMutability": "pure",
      "type": "function"
    },
    {
      "inputs": [
        {
          "internalType": "address",
          "name": "token",
          "type": "address"
        },
        {
          "internalType": "uint256",
          "name": "amount",
          "type": "uint256"
        }
      ],
      "name": "depositToken",
      "outputs": [],
      "stateMutability": "nonpayable",
      "type": "function"
    },
    {
      "inputs": [
        {
          "internalType": "address",
          "name": "token",
          "type": "address"
        }
      ],
      "name": "emergencyWithdraw",
      "outputs": [],
      "stateMutability": "nonpayable",
      "type": "function"
    },
    {
      "inputs": [
        {
          "internalType": "address",
          "name": "",
          "type": "address"
        },
        {
          "internalType": "address",
          "name": "",
          "type": "address"
        }
      ],
      "name": "exchangeRates",
      "outputs": [
        {
          "internalType": "uint256",
          "name": "",
          "type": "uint256"
        }
      ],
      "stateMutability": "view",
      "type": "function"
    },
    {
      "inputs": [],
      "name": "owner",
      "outputs": [
        {
          "internalType": "address",
          "name": "",
          "type": "address"
        }
      ],
      "stateMutability": "view",
      "type": "function"
    },
    {
      "inputs": [
        {
          "internalType": "address",
          "name": "fromToken",
          "type": "address"
        },
        {
          "internalType": "address",
          "name": "toToken",
          "type": "address"
        },
        {
          "internalType": "uint256",
          "name": "rate",
          "type": "uint256"
        }
      ],
      "name": "setRate",
      "outputs": [],
      "stateMutability": "nonpayable",
      "type": "function"
    },
    {
      "inputs": [
        {
          "internalType": "address",
          "name": "",
          "type": "address"
        },
        {
          "internalType": "address",
          "name": "",
          "type": "address"
        }
      ],
      "name": "supportedPairs",
      "outputs": [
        {
          "internalType": "bool",
          "name": "",
          "type": "bool"
        }
      ],
      "stateMutability": "view",
      "type": "function"
    },
    {
      "inputs": [
        {
          "internalType": "address",
          "name": "fromToken",
          "type": "address"
        },
        {
          "internalType": "address",
          "name": "toToken",
          "type": "address"
        },
        {
          "internalType": "uint256",
          "name": "amountIn",
          "type": "uint256"
        }
      ],
      "name": "swap",
      "outputs": [
        {
          "internalType": "uint256",
          "name": "amountOut",
          "type": "uint256"
        }
      ],
      "stateMutability": "nonpayable",
      "type": "function"
    }
  ],
  "bytecode": "0x608060405234801561001057600080fd5b50600280546001600160a01b031916331790557fc5d8380cf06dac81a1323eb2ab261714b22eeefaf3a5de6124ebf80a509aaa9e805460ff1990811660019081179092557fbb212a941503401be0749faa34a9ad1b6b4bec5458ccba3f6c82b7ecea2baf3080548216831790557fbc54a718b749489a6309c15bb3d7356ebcad7a95873e1405da9f5d779eb641af80548216831790557f65ec0b5ebf515d44b39a20a5455caab4cb7cc8364fe208144939186c161a14d380548216831790557f2899f72357ab3f4e0286d7f21d84bfb54b0192f9636394877f08b56130f88d2e80548216831790557fcaf3791dfa825eb324d2562b35952dae2ac8b41a88451ceb0ff53c975658962e80549091169091179055670de0b6b3a76400007ff8a602df034a24cbd19e8c8d150d57c93b2dd44802282b8f0ed7e64229641f0b8190557f65b8e533c374a5df6ea334bf001e6d0c82d1616b621f2b24e40b9252e9efc7cf55686c6b935b8bbd4000007fc7e8202a656d18d466857f2a270d4bb5d393e392df17f280d24d43f61acea0a78190556601c6bf526340007f36883382546220f8b44d308e1173f896b51d3fbdf8f74210c1dba992fed9387b8190557f3f42a4b186ae93f9e9868c550aea5085f99a2d4af7ced86f926eafa94433b5b89190915573b5a30b0fdc5ea94a52fdc42e3e9760cb8449fb3760009081527f471e427c21cfbf118eb406487cbb3ca172120f645c6d51553751e8a377cc07b96020527ff5c5a2f58edde5f2a6a84207bd4832dfa3b4483fb647fb616f40eaf908cf3f54919091556112d990819061026490396000f3fe608060405234801561001057600080fd5b50600436106100b35760003560e01c80637f660b01116100715780637f660b01146101745780638da5cb5b146101a757806399a5d747146101ba578063b6f3e087146101cd578063d73792a9146101e0578063df791e50146101e957600080fd5b80620b46f8146100b8578063338b5dea146100d3578063461100bb146100e8578063503fa44f146101235780635911fb9a1461014e5780636ff1c9bc14610161575b600080fd5b6100c060c881565b6040519081526020015b60405180910390f35b6100e66100e13660046110cf565b6101fc565b005b6101136100f63660046110f9565b600060208181529281526040808220909352908152205460ff1681565b60405190151581526020016100ca565b6100c06101313660046110f9565b600160209081526000928352604080842090915290825290205481565b6100e661015c36600461112c565b6103a6565b6100e661016f366004611168565b6103fc565b61018f73899e3bbc6b756a6a52cfcc133adaf5ccecfc9aa481565b6040516001600160a01b0390911681526020016100ca565b60025461018f906001600160a01b031681565b6100c06101c836600461118a565b61054c565b6100e66101db3660046110f9565b61056c565b6100c061271081565b6100c06101f736600461112c565b6105e6565b6002546001600160a01b0316331461022f5760405162461bcd60e51b8152600401610226906111a3565b60405180910390fd5b6040516323b872dd60e01b8152336004820152306024820152604481018290526001600160a01b038316906323b872dd906064016020604051808303816000875af1158015610282573d6000803e3d6000fd5b505050506040513d601f19601f820116820180604052508101906102a691906111c6565b6102e35760405162461bcd60e51b815260206004820152600e60248201526d11195c1bdcda5d0819985a5b195960921b6044820152606401610226565b6040516370a0823160e01b81523060048201526000805160206112848339815191529083906001600160a01b038216906370a0823190602401602060405180830381865afa158015610339573d6000803e3d6000fd5b505050506040513d601f19601f8201168201806040525081019061035d91906111e8565b604080516060808252600f908201526e151bdad95b8811195c1bdcda5d1959608a1b60808201526001600160a01b03909316602084015282015260a00160405180910390a15050565b6002546001600160a01b031633146103d05760405162461bcd60e51b8152600401610226906111a3565b6001600160a01b0392831660009081526001602090815260408083209490951682529290925291902055565b6002546001600160a01b031633146104265760405162461bcd60e51b8152600401610226906111a3565b6040516370a0823160e01b81523060048201526000906001600160a01b038316906370a0823190602401602060405180830381865afa15801561046d573d6000803e3d6000fd5b505050506040513d601f19601f8201168201806040525081019061049191906111e8565b60025460405163a9059cbb60e01b81526001600160a01b0391821660048201526024810183905291925083169063a9059cbb906044016020604051808303816000875af11580156104e6573d6000803e3d6000fd5b505050506040513d601f19601f8201168201806040525081019061050a91906111c6565b6105485760405162461bcd60e51b815260206004820152600f60248201526e15da5d1a191c985dc819985a5b1959608a1b6044820152606401610226565b5050565b600061271061055c60c884611217565b610566919061122e565b92915050565b6002546001600160a01b031633146105965760405162461bcd60e51b8152600401610226906111a3565b6001600160a01b039182166000818152602081815260408083209490951682529283528381208054600160ff19918216811790925582855285832093835292909352929092208054909216179055565b60408051818152600a8183015269233937b6902a37b5b2b760b11b60608201526001600160a01b038516602082015290516000917fb3f7d6c63a62ab0e6ae5263ef1deb9c5a64f4689288c380db949c116314a5540919081900360800190a160408051818152600881830152672a37902a37b5b2b760c11b60608201526001600160a01b038516602082015290517fb3f7d6c63a62ab0e6ae5263ef1deb9c5a64f4689288c380db949c116314a55409181900360800190a1604080518181526009818301526820b6b7bab73a1024b760b91b60608201526020810184905290516000805160206112648339815191529181900360800190a16001600160a01b038085166000908152602081815260408083209387168352929052205460ff166107465760405162461bcd60e51b815260206004820152601260248201527114185a5c881b9bdd081cdd5c1c1bdc9d195960721b6044820152606401610226565b6000821161078b5760405162461bcd60e51b81526020600482015260126024820152710416d6f756e74206d757374206265203e20360741b6044820152606401610226565b6040516370a0823160e01b81523060048201526000906001600160a01b038616906370a0823190602401602060405180830381865afa1580156107d2573d6000803e3d6000fd5b505050506040513d601f19601f820116820180604052508101906107f691906111e8565b6040516370a0823160e01b81523060048201529091506000906001600160a01b038616906370a0823190602401602060405180830381865afa158015610840573d6000803e3d6000fd5b505050506040513d601f19601f8201168201806040525081019061086491906111e8565b604080516060808252601c908201527f436f6e74726163742046726f6d2042616c616e6365204265666f72650000000060808201526001600160a01b03891660208201529081018490529091506000805160206112848339815191529060a00160405180910390a1604080516060808252601a908201527f436f6e747261637420546f2042616c616e6365204265666f726500000000000060808201526001600160a01b03871660208201529081018290526000805160206112848339815191529060a00160405180910390a16040516370a0823160e01b81523360048201526000906001600160a01b038816906370a0823190602401602060405180830381865afa158015610978573d6000803e3d6000fd5b505050506040513d601f19601f8201168201806040525081019061099c91906111e8565b60408051606080825260119082015270557365722046726f6d2042616c616e636560781b60808201526001600160a01b038a1660208201529081018290529091506000805160206112848339815191529060a00160405180910390a184811015610a3f5760405162461bcd60e51b8152602060048201526014602482015273496e73756666696369656e742062616c616e636560601b6044820152606401610226565b6001600160a01b038088166000908152600160209081526040808320938a1683529290522054670de0b6b3a764000090610a799087611217565b610a83919061122e565b935060008411610aca5760405162461bcd60e51b8152602060048201526012602482015271125b9d985b1a5908185b5bdd5b9d081bdd5d60721b6044820152606401610226565b6000610ad58561054c565b90506000610ae38287611250565b905060008051602061126483398151915286604051610b349190604080825260159082015274416d6f756e74204f7574204265666f72652046656560581b6060820152602081019190915260800190565b60405180910390a160408051818152600a818301526911995948105b5bdd5b9d60b21b60608201526020810184905290516000805160206112648339815191529181900360800190a16040805181815260148183015273416d6f756e74204f75742041667465722046656560601b60608201526020810183905290516000805160206112648339815191529181900360800190a185841015610c185760405162461bcd60e51b815260206004820152601d60248201527f496e73756666696369656e7420636f6e74726163742062616c616e63650000006044820152606401610226565b6040516323b872dd60e01b8152336004820152306024820152604481018890526001600160a01b038a16906323b872dd906064016020604051808303816000875af1158015610c6b573d6000803e3d6000fd5b505050506040513d601f19601f82011682018060405250810190610c8f91906111c6565b610cd25760405162461bcd60e51b8152602060048201526014602482015273151c985b9cd9995c88199c9bdb4819985a5b195960621b6044820152606401610226565b60405163a9059cbb60e01b8152336004820152602481018290526001600160a01b0389169063a9059cbb906044016020604051808303816000875af1158015610d1f573d6000803e3d6000fd5b505050506040513d601f19601f82011682018060405250810190610d4391906111c6565b610d8f5760405162461bcd60e51b815260206004820152601760248201527f5472616e7366657220746f2075736572206661696c65640000000000000000006044820152606401610226565b8115610eb45760405163a9059cbb60e01b815273899e3bbc6b756a6a52cfcc133adaf5ccecfc9aa46004820152602481018390526001600160a01b0389169063a9059cbb906044016020604051808303816000875af1158015610df6573d6000803e3d6000fd5b505050506040513d601f19601f82011682018060405250810190610e1a91906111c6565b610e5c5760405162461bcd60e51b8152602060048201526013602482015272119959481d1c985b9cd9995c8819985a5b1959606a1b6044820152606401610226565b6040805183815273899e3bbc6b756a6a52cfcc133adaf5ccecfc9aa460208201526001600160a01b038a16917f36119f4f28ae3384ed31589f21ec2992cb0ebe53b11c79a24466ee74471764ed910160405180910390a25b6040516370a0823160e01b81523060048201526001600160a01b038a16906370a0823190602401602060405180830381865afa158015610ef8573d6000803e3d6000fd5b505050506040513d601f19601f82011682018060405250810190610f1c91906111e8565b6040516370a0823160e01b81523060048201529095506001600160a01b038916906370a0823190602401602060405180830381865afa158015610f63573d6000803e3d6000fd5b505050506040513d601f19601f82011682018060405250810190610f8791906111e8565b604080516060808252601b908201527f436f6e74726163742046726f6d2042616c616e6365204166746572000000000060808201526001600160a01b038c1660208201529081018790529094506000805160206112848339815191529060a00160405180910390a16040805160608082526019908201527f436f6e747261637420546f2042616c616e63652041667465720000000000000060808201526001600160a01b038a1660208201529081018590526000805160206112848339815191529060a00160405180910390a160408051888152602081018390529081018390526001600160a01b03808a1691908b169033907fe2bd3f957a9c89d5a58b7bf40f44d9249375545ef13817461d1c08e7f71e3a459060600160405180910390a498975050505050505050565b80356001600160a01b03811681146110ca57600080fd5b919050565b600080604083850312156110e257600080fd5b6110eb836110b3565b946020939093013593505050565b6000806040838503121561110c57600080fd5b611115836110b3565b9150611123602084016110b3565b90509250929050565b60008060006060848603121561114157600080fd5b61114a846110b3565b9250611158602085016110b3565b9150604084013590509250925092565b60006020828403121561117a57600080fd5b611183826110b3565b9392505050565b60006020828403121561119c57600080fd5b5035919050565b6020808252600990820152682737ba1037bbb732b960b91b604082015260600190565b6000602082840312156111d857600080fd5b8151801515811461118357600080fd5b6000602082840312156111fa57600080fd5b5051919050565b634e487b7160e01b600052601160045260246000fd5b808202811582820484141761056657610566611201565b60008261124b57634e487b7160e01b600052601260045260246000fd5b500490565b818103818111156105665761056661120156fe3c5ad147104e56be34a9176a6692f7df8d2f4b29a5af06bc6b98970d329d657728d7b9b2f784cfd77a99878b6ee7ac54e22d1a1b3cd542a1992bc36993b213c1a2646970667358221220c26032476ea278adf5973d80166d0f366147abf115bfee86307eea73b9197c1a64736f6c63430008130033",
  "linkReferences": {},
  "deployedLinkReferences": {}
}