{
  "_format": "hh-sol-artifact-1",
  "contractName": "MonadSwapAggregatorV1",
  "sourceName": "contracts/MonadSwapAggregatorV1.sol",
  "abi": [
    {
      "inputs": [],
      "stateMutability": "nonpayable",
      "type": "constructor"
    },
    {
      "anonymous": false,
      "inputs": [
        {
          "indexed": false,
          "internalType": "uint8",
          "name": "version",
          "type": "uint8"
        }
      ],
      "name": "Initialized",
      "type": "event"
    },
    {
      "anonymous": false,
      "inputs": [
        {
          "indexed": true,
          "internalType": "address",
          "name": "previousOwner",
          "type": "address"
        },
        {
          "indexed": true,
          "internalType": "address",
          "name": "newOwner",
          "type": "address"
        }
      ],
      "name": "OwnershipTransferred",
      "type": "event"
    },
    {
      "anonymous": false,
      "inputs": [
        {
          "indexed": true,
          "internalType": "address",
          "name": "user",
          "type": "address"
        },
        {
          "indexed": true,
          "internalType": "address",
          "name": "fromToken",
          "type": "address"
        },
        {
          "indexed": true,
          "internalType": "address",
          "name": "toToken",
          "type": "address"
        },
        {
          "indexed": false,
          "internalType": "uint256",
          "name": "amountIn",
          "type": "uint256"
        },
        {
          "indexed": false,
          "internalType": "uint256",
          "name": "amountOut",
          "type": "uint256"
        }
      ],
      "name": "TokenSwapped",
      "type": "event"
    },
    {
      "inputs": [],
      "name": "beanRouter",
      "outputs": [
        {
          "internalType": "contract IBeanRouter",
          "name": "",
          "type": "address"
        }
      ],
      "stateMutability": "view",
      "type": "function"
    },
    {
      "inputs": [
        {
          "internalType": "address",
          "name": "fromToken",
          "type": "address"
        },
        {
          "internalType": "address",
          "name": "toToken",
          "type": "address"
        },
        {
          "internalType": "uint256",
          "name": "amountIn",
          "type": "uint256"
        }
      ],
      "name": "getAmountOut",
      "outputs": [
        {
          "internalType": "uint256",
          "name": "amountOut",
          "type": "uint256"
        }
      ],
      "stateMutability": "view",
      "type": "function"
    },
    {
      "inputs": [
        {
          "internalType": "address",
          "name": "_beanRouter",
          "type": "address"
        },
        {
          "internalType": "address",
          "name": "_wmon",
          "type": "address"
        }
      ],
      "name": "initialize",
      "outputs": [],
      "stateMutability": "nonpayable",
      "type": "function"
    },
    {
      "inputs": [],
      "name": "owner",
      "outputs": [
        {
          "internalType": "address",
          "name": "",
          "type": "address"
        }
      ],
      "stateMutability": "view",
      "type": "function"
    },
    {
      "inputs": [],
      "name": "renounceOwnership",
      "outputs": [],
      "stateMutability": "nonpayable",
      "type": "function"
    },
    {
      "inputs": [
        {
          "internalType": "address",
          "name": "fromToken",
          "type": "address"
        },
        {
          "internalType": "address",
          "name": "toToken",
          "type": "address"
        },
        {
          "internalType": "uint256",
          "name": "amountIn",
          "type": "uint256"
        },
        {
          "internalType": "uint256",
          "name": "amountOutMin",
          "type": "uint256"
        }
      ],
      "name": "swap",
      "outputs": [
        {
          "internalType": "uint256",
          "name": "amountOut",
          "type": "uint256"
        }
      ],
      "stateMutability": "payable",
      "type": "function"
    },
    {
      "inputs": [
        {
          "internalType": "address",
          "name": "newOwner",
          "type": "address"
        }
      ],
      "name": "transferOwnership",
      "outputs": [],
      "stateMutability": "nonpayable",
      "type": "function"
    },
    {
      "inputs": [
        {
          "internalType": "address",
          "name": "_newRouter",
          "type": "address"
        }
      ],
      "name": "updateBeanRouter",
      "outputs": [],
      "stateMutability": "nonpayable",
      "type": "function"
    },
    {
      "inputs": [
        {
          "internalType": "address",
          "name": "_newWMON",
          "type": "address"
        }
      ],
      "name": "updateWMON",
      "outputs": [],
      "stateMutability": "nonpayable",
      "type": "function"
    },
    {
      "inputs": [],
      "name": "wmon",
      "outputs": [
        {
          "internalType": "address",
          "name": "",
          "type": "address"
        }
      ],
      "stateMutability": "view",
      "type": "function"
    },
    {
      "stateMutability": "payable",
      "type": "receive"
    }
  ],
  "bytecode": "0x608060405234801561001057600080fd5b5061001961001e565b6100dd565b600054610100900460ff161561008a5760405162461bcd60e51b815260206004820152602760248201527f496e697469616c697a61626c653a20636f6e747261637420697320696e697469604482015266616c697a696e6760c81b606482015260840160405180910390fd5b60005460ff908116146100db576000805460ff191660ff9081179091556040519081527f7f26b83ff96e1f2b6a682f133852f6798a09c465da95921460cefb38474024989060200160405180910390a15b565b6114e2806100ec6000396000f3fe6080604052600436106100955760003560e01c80638da5cb5b116100595780638da5cb5b146101635780639b69c7c814610181578063ac29e1a1146101a1578063f2fde38b146101c1578063fe029156146101e157600080fd5b8063485cc955146100a15780634aa06652146100c3578063715018a6146100f65780637d86b8a51461010b578063858845d91461014357600080fd5b3661009c57005b600080fd5b3480156100ad57600080fd5b506100c16100bc36600461119a565b6101f4565b005b3480156100cf57600080fd5b506100e36100de3660046111cd565b61033c565b6040519081526020015b60405180910390f35b34801561010257600080fd5b506100c161059c565b34801561011757600080fd5b5060665461012b906001600160a01b031681565b6040516001600160a01b0390911681526020016100ed565b34801561014f57600080fd5b506100c161015e366004611209565b6105b0565b34801561016f57600080fd5b506033546001600160a01b031661012b565b34801561018d57600080fd5b506100c161019c366004611209565b610629565b3480156101ad57600080fd5b5060655461012b906001600160a01b031681565b3480156101cd57600080fd5b506100c16101dc366004611209565b6106a0565b6100e36101ef36600461122b565b610719565b600054610100900460ff16158080156102145750600054600160ff909116105b8061022e5750303b15801561022e575060005460ff166001145b6102965760405162461bcd60e51b815260206004820152602e60248201527f496e697469616c697a61626c653a20636f6e747261637420697320616c72656160448201526d191e481a5b9a5d1a585b1a5e995960921b60648201526084015b60405180910390fd5b6000805460ff1916600117905580156102b9576000805461ff0019166101001790555b6102c161083f565b606580546001600160a01b038086166001600160a01b03199283161790925560668054928516929091169190911790558015610337576000805461ff0019169055604051600181527f7f26b83ff96e1f2b6a682f133852f6798a09c465da95921460cefb38474024989060200160405180910390a15b505050565b600060606001600160a01b03851661035d576066546001600160a01b031694505b6001600160a01b03841661037a576066546001600160a01b031693505b6066546001600160a01b03868116911614806103a357506066546001600160a01b038581169116145b1561043557604080516002808252606082018352909160208301908036833701905050905084816000815181106103dc576103dc611283565b60200260200101906001600160a01b031690816001600160a01b031681525050838160018151811061041057610410611283565b60200260200101906001600160a01b031690816001600160a01b0316815250506104f0565b604080516003808252608082019092529060208201606080368337019050509050848160008151811061046a5761046a611283565b6001600160a01b03928316602091820292909201015260665482519116908290600190811061049b5761049b611283565b60200260200101906001600160a01b031690816001600160a01b03168152505083816002815181106104cf576104cf611283565b60200260200101906001600160a01b031690816001600160a01b0316815250505b60655460405163d06ca61f60e01b81526000916001600160a01b03169063d06ca61f9061052390879086906004016112de565b600060405180830381865afa158015610540573d6000803e3d6000fd5b505050506040513d6000823e601f3d908101601f1916820160405261056891908101906112f7565b9050806001825161057991906113cb565b8151811061058957610589611283565b6020026020010151925050509392505050565b6105a461086e565b6105ae60006108c8565b565b6105b861086e565b6001600160a01b0381166106075760405162461bcd60e51b8152602060048201526016602482015275496e76616c696420726f75746572206164647265737360501b604482015260640161028d565b606580546001600160a01b0319166001600160a01b0392909216919091179055565b61063161086e565b6001600160a01b03811661067e5760405162461bcd60e51b8152602060048201526014602482015273496e76616c696420574d4f4e206164647265737360601b604482015260640161028d565b606680546001600160a01b0319166001600160a01b0392909216919091179055565b6106a861086e565b6001600160a01b03811661070d5760405162461bcd60e51b815260206004820152602660248201527f4f776e61626c653a206e6577206f776e657220697320746865207a65726f206160448201526564647265737360d01b606482015260840161028d565b610716816108c8565b50565b600080831161075f5760405162461bcd60e51b81526020600482015260126024820152710416d6f756e74206d757374206265203e20360741b604482015260640161028d565b836001600160a01b0316856001600160a01b0316036107ae5760405162461bcd60e51b815260206004820152600b60248201526a53616d6520746f6b656e7360a81b604482015260640161028d565b6001600160a01b038516610812578234146108005760405162461bcd60e51b8152602060048201526012602482015271125b9d985b1a59081353d388185b5bdd5b9d60721b604482015260640161028d565b61080b84848461091a565b9050610837565b6001600160a01b03841661082b5761080b858484610ac3565b61080b85858585610d7d565b949350505050565b600054610100900460ff166108665760405162461bcd60e51b815260040161028d906113e4565b6105ae61114e565b6033546001600160a01b031633146105ae5760405162461bcd60e51b815260206004820181905260248201527f4f776e61626c653a2063616c6c6572206973206e6f7420746865206f776e6572604482015260640161028d565b603380546001600160a01b038381166001600160a01b0319831681179093556040519116919082907f8be0079c531659141344cd1fd0a4f28419497f9722a3daafe3b4186f6b6457e090600090a35050565b60408051600280825260608201835260009283929190602083019080368337505060665482519293506001600160a01b03169183915060009061095f5761095f611283565b60200260200101906001600160a01b031690816001600160a01b031681525050848160018151811061099357610993611283565b6001600160a01b03928316602091820292909201015260655460009116637ff36ab5868685336109c5426104b061142f565b6040518663ffffffff1660e01b81526004016109e49493929190611442565b60006040518083038185885af1158015610a02573d6000803e3d6000fd5b50505050506040513d6000823e601f3d908101601f19168201604052610a2b91908101906112f7565b905060008160018351610a3e91906113cb565b81518110610a4e57610a4e611283565b60200260200101519050866001600160a01b031660006001600160a01b0316336001600160a01b03167fd36cc53ba71bc76a3db3364981f5296dd4ca5eba0e8c89874f2170515bd20d248985604051610ab1929190918252602082015260400190565b60405180910390a49695505050505050565b6040516323b872dd60e01b8152336004820152306024820152604481018390526000906001600160a01b038516906323b872dd906064016020604051808303816000875af1158015610b19573d6000803e3d6000fd5b505050506040513d601f19601f82011682018060405250810190610b3d9190611477565b610b805760405162461bcd60e51b8152602060048201526014602482015273151c985b9cd9995c88199c9bdb4819985a5b195960621b604482015260640161028d565b60655460405163095ea7b360e01b81526001600160a01b039182166004820152602481018590529085169063095ea7b3906044016020604051808303816000875af1158015610bd3573d6000803e3d6000fd5b505050506040513d601f19601f82011682018060405250810190610bf79190611477565b506040805160028082526060820183526000926020830190803683370190505090508481600081518110610c2d57610c2d611283565b6001600160a01b039283166020918202929092010152606654825191169082906001908110610c5e57610c5e611283565b6001600160a01b039283166020918202929092010152606554600091166318cbafe586868533610c90426104b061142f565b6040518663ffffffff1660e01b8152600401610cb0959493929190611499565b6000604051808303816000875af1158015610ccf573d6000803e3d6000fd5b505050506040513d6000823e601f3d908101601f19168201604052610cf791908101906112f7565b905060008160018351610d0a91906113cb565b81518110610d1a57610d1a611283565b6020026020010151905060006001600160a01b0316876001600160a01b0316336001600160a01b03167fd36cc53ba71bc76a3db3364981f5296dd4ca5eba0e8c89874f2170515bd20d248985604051610ab1929190918252602082015260400190565b6040516323b872dd60e01b8152336004820152306024820152604481018390526000906001600160a01b038616906323b872dd906064016020604051808303816000875af1158015610dd3573d6000803e3d6000fd5b505050506040513d601f19601f82011682018060405250810190610df79190611477565b610e3a5760405162461bcd60e51b8152602060048201526014602482015273151c985b9cd9995c88199c9bdb4819985a5b195960621b604482015260640161028d565b60655460405163095ea7b360e01b81526001600160a01b039182166004820152602481018590529086169063095ea7b3906044016020604051808303816000875af1158015610e8d573d6000803e3d6000fd5b505050506040513d601f19601f82011682018060405250810190610eb19190611477565b506066546060906001600160a01b0387811691161480610ede57506066546001600160a01b038681169116145b15610f705760408051600280825260608201835290916020830190803683370190505090508581600081518110610f1757610f17611283565b60200260200101906001600160a01b031690816001600160a01b0316815250508481600181518110610f4b57610f4b611283565b60200260200101906001600160a01b031690816001600160a01b03168152505061102b565b6040805160038082526080820190925290602082016060803683370190505090508581600081518110610fa557610fa5611283565b6001600160a01b039283166020918202929092010152606654825191169082906001908110610fd657610fd6611283565b60200260200101906001600160a01b031690816001600160a01b031681525050848160028151811061100a5761100a611283565b60200260200101906001600160a01b031690816001600160a01b0316815250505b6065546000906001600160a01b03166338ed17398686853361104f426104b061142f565b6040518663ffffffff1660e01b815260040161106f959493929190611499565b6000604051808303816000875af115801561108e573d6000803e3d6000fd5b505050506040513d6000823e601f3d908101601f191682016040526110b691908101906112f7565b9050600081600183516110c991906113cb565b815181106110d9576110d9611283565b60200260200101519050866001600160a01b0316886001600160a01b0316336001600160a01b03167fd36cc53ba71bc76a3db3364981f5296dd4ca5eba0e8c89874f2170515bd20d24898560405161113b929190918252602082015260400190565b60405180910390a4979650505050505050565b600054610100900460ff166111755760405162461bcd60e51b815260040161028d906113e4565b6105ae336108c8565b80356001600160a01b038116811461119557600080fd5b919050565b600080604083850312156111ad57600080fd5b6111b68361117e565b91506111c46020840161117e565b90509250929050565b6000806000606084860312156111e257600080fd5b6111eb8461117e565b92506111f96020850161117e565b9150604084013590509250925092565b60006020828403121561121b57600080fd5b6112248261117e565b9392505050565b6000806000806080858703121561124157600080fd5b61124a8561117e565b93506112586020860161117e565b93969395505050506040820135916060013590565b634e487b7160e01b600052604160045260246000fd5b634e487b7160e01b600052603260045260246000fd5b60008151808452602080850194506020840160005b838110156112d35781516001600160a01b0316875295820195908201906001016112ae565b509495945050505050565b8281526040602082015260006108376040830184611299565b6000602080838503121561130a57600080fd5b825167ffffffffffffffff8082111561132257600080fd5b818501915085601f83011261133657600080fd5b8151818111156113485761134861126d565b8060051b604051601f19603f8301168101818110858211171561136d5761136d61126d565b60405291825284820192508381018501918883111561138b57600080fd5b938501935b828510156113a957845184529385019392850192611390565b98975050505050505050565b634e487b7160e01b600052601160045260246000fd5b818103818111156113de576113de6113b5565b92915050565b6020808252602b908201527f496e697469616c697a61626c653a20636f6e7472616374206973206e6f74206960408201526a6e697469616c697a696e6760a81b606082015260800190565b808201808211156113de576113de6113b5565b84815260806020820152600061145b6080830186611299565b6001600160a01b03949094166040830152506060015292915050565b60006020828403121561148957600080fd5b8151801515811461122457600080fd5b85815284602082015260a0604082015260006114b860a0830186611299565b6001600160a01b039490941660608301525060800152939250505056fea164736f6c6343000816000a",
  "linkReferences": {},
  "deployedLinkReferences": {}
}