{
  "_format": "hh-sol-artifact-1",
  "contractName": "MonadSwapAggregatorV2",
  "sourceName": "contracts/MonadSwapAggregatorV2.sol",
  "abi": [
    {
      "inputs": [],
      "stateMutability": "nonpayable",
      "type": "constructor"
    },
    {
      "anonymous": false,
      "inputs": [
        {
          "indexed": false,
          "internalType": "address",
          "name": "newCollector",
          "type": "address"
        }
      ],
      "name": "FeeCollectorUpdated",
      "type": "event"
    },
    {
      "anonymous": false,
      "inputs": [
        {
          "indexed": false,
          "internalType": "uint256",
          "name": "newFee",
          "type": "uint256"
        }
      ],
      "name": "FeeUpdated",
      "type": "event"
    },
    {
      "anonymous": false,
      "inputs": [
        {
          "indexed": false,
          "internalType": "uint8",
          "name": "version",
          "type": "uint8"
        }
      ],
      "name": "Initialized",
      "type": "event"
    },
    {
      "anonymous": false,
      "inputs": [
        {
          "indexed": true,
          "internalType": "address",
          "name": "previousOwner",
          "type": "address"
        },
        {
          "indexed": true,
          "internalType": "address",
          "name": "newOwner",
          "type": "address"
        }
      ],
      "name": "OwnershipTransferred",
      "type": "event"
    },
    {
      "anonymous": false,
      "inputs": [
        {
          "indexed": true,
          "internalType": "address",
          "name": "user",
          "type": "address"
        },
        {
          "indexed": true,
          "internalType": "address",
          "name": "fromToken",
          "type": "address"
        },
        {
          "indexed": true,
          "internalType": "address",
          "name": "toToken",
          "type": "address"
        },
        {
          "indexed": false,
          "internalType": "uint256",
          "name": "amountIn",
          "type": "uint256"
        },
        {
          "indexed": false,
          "internalType": "uint256",
          "name": "amountOut",
          "type": "uint256"
        },
        {
          "indexed": false,
          "internalType": "uint256",
          "name": "fee",
          "type": "uint256"
        }
      ],
      "name": "TokenSwapped",
      "type": "event"
    },
    {
      "inputs": [],
      "name": "beanRouter",
      "outputs": [
        {
          "internalType": "contract IBeanRouter",
          "name": "",
          "type": "address"
        }
      ],
      "stateMutability": "view",
      "type": "function"
    },
    {
      "inputs": [],
      "name": "feeCollector",
      "outputs": [
        {
          "internalType": "address",
          "name": "",
          "type": "address"
        }
      ],
      "stateMutability": "view",
      "type": "function"
    },
    {
      "inputs": [
        {
          "internalType": "address",
          "name": "fromToken",
          "type": "address"
        },
        {
          "internalType": "address",
          "name": "toToken",
          "type": "address"
        },
        {
          "internalType": "uint256",
          "name": "amountIn",
          "type": "uint256"
        }
      ],
      "name": "getAmountOut",
      "outputs": [
        {
          "internalType": "uint256",
          "name": "amountOut",
          "type": "uint256"
        }
      ],
      "stateMutability": "view",
      "type": "function"
    },
    {
      "inputs": [
        {
          "internalType": "address",
          "name": "_beanRouter",
          "type": "address"
        },
        {
          "internalType": "address",
          "name": "_wmon",
          "type": "address"
        }
      ],
      "name": "initialize",
      "outputs": [],
      "stateMutability": "nonpayable",
      "type": "function"
    },
    {
      "inputs": [],
      "name": "owner",
      "outputs": [
        {
          "internalType": "address",
          "name": "",
          "type": "address"
        }
      ],
      "stateMutability": "view",
      "type": "function"
    },
    {
      "inputs": [
        {
          "internalType": "address",
          "name": "",
          "type": "address"
        }
      ],
      "name": "preferredPairs",
      "outputs": [
        {
          "internalType": "bool",
          "name": "",
          "type": "bool"
        }
      ],
      "stateMutability": "view",
      "type": "function"
    },
    {
      "inputs": [],
      "name": "renounceOwnership",
      "outputs": [],
      "stateMutability": "nonpayable",
      "type": "function"
    },
    {
      "inputs": [
        {
          "internalType": "address",
          "name": "_newCollector",
          "type": "address"
        }
      ],
      "name": "setFeeCollector",
      "outputs": [],
      "stateMutability": "nonpayable",
      "type": "function"
    },
    {
      "inputs": [
        {
          "internalType": "address",
          "name": "token0",
          "type": "address"
        },
        {
          "internalType": "address",
          "name": "token1",
          "type": "address"
        },
        {
          "internalType": "bool",
          "name": "status",
          "type": "bool"
        }
      ],
      "name": "setPreferredPair",
      "outputs": [],
      "stateMutability": "nonpayable",
      "type": "function"
    },
    {
      "inputs": [
        {
          "internalType": "uint256",
          "name": "_newFee",
          "type": "uint256"
        }
      ],
      "name": "setSwapFee",
      "outputs": [],
      "stateMutability": "nonpayable",
      "type": "function"
    },
    {
      "inputs": [
        {
          "internalType": "address",
          "name": "fromToken",
          "type": "address"
        },
        {
          "internalType": "address",
          "name": "toToken",
          "type": "address"
        },
        {
          "internalType": "uint256",
          "name": "amountIn",
          "type": "uint256"
        },
        {
          "internalType": "uint256",
          "name": "amountOutMin",
          "type": "uint256"
        }
      ],
      "name": "swap",
      "outputs": [
        {
          "internalType": "uint256",
          "name": "amountOut",
          "type": "uint256"
        }
      ],
      "stateMutability": "payable",
      "type": "function"
    },
    {
      "inputs": [],
      "name": "swapFee",
      "outputs": [
        {
          "internalType": "uint256",
          "name": "",
          "type": "uint256"
        }
      ],
      "stateMutability": "view",
      "type": "function"
    },
    {
      "inputs": [
        {
          "internalType": "address",
          "name": "newOwner",
          "type": "address"
        }
      ],
      "name": "transferOwnership",
      "outputs": [],
      "stateMutability": "nonpayable",
      "type": "function"
    },
    {
      "inputs": [
        {
          "internalType": "address",
          "name": "_newRouter",
          "type": "address"
        }
      ],
      "name": "updateBeanRouter",
      "outputs": [],
      "stateMutability": "nonpayable",
      "type": "function"
    },
    {
      "inputs": [
        {
          "internalType": "address",
          "name": "_newWMON",
          "type": "address"
        }
      ],
      "name": "updateWMON",
      "outputs": [],
      "stateMutability": "nonpayable",
      "type": "function"
    },
    {
      "inputs": [],
      "name": "wmon",
      "outputs": [
        {
          "internalType": "address",
          "name": "",
          "type": "address"
        }
      ],
      "stateMutability": "view",
      "type": "function"
    },
    {
      "stateMutability": "payable",
      "type": "receive"
    }
  ],
  "bytecode": "0x608060405234801561001057600080fd5b5061001961001e565b6100dd565b600054610100900460ff161561008a5760405162461bcd60e51b815260206004820152602760248201527f496e697469616c697a61626c653a20636f6e747261637420697320696e697469604482015266616c697a696e6760c81b606482015260840160405180910390fd5b60005460ff908116146100db576000805460ff191660ff9081179091556040519081527f7f26b83ff96e1f2b6a682f133852f6798a09c465da95921460cefb38474024989060200160405180910390a15b565b611795806100ec6000396000f3fe6080604052600436106100f75760003560e01c80638da5cb5b1161008a578063af7be3d711610059578063af7be3d714610299578063c415b95c146102d9578063f2fde38b146102f9578063fe0291561461031957600080fd5b80638da5cb5b1461021b5780639b69c7c814610239578063a42dce8014610259578063ac29e1a11461027957600080fd5b8063715018a6116100c6578063715018a61461018e578063761de586146101a35780637d86b8a5146101c3578063858845d9146101fb57600080fd5b806334e1990714610103578063485cc955146101255780634aa066521461014557806354cf2aeb1461017857600080fd5b366100fe57005b600080fd5b34801561010f57600080fd5b5061012361011e366004611394565b61032c565b005b34801561013157600080fd5b506101236101403660046113c9565b6103b5565b34801561015157600080fd5b506101656101603660046113fc565b610508565b6040519081526020015b60405180910390f35b34801561018457600080fd5b5061016560675481565b34801561019a57600080fd5b506101236105ee565b3480156101af57600080fd5b506101236101be366004611446565b610602565b3480156101cf57600080fd5b506066546101e3906001600160a01b031681565b6040516001600160a01b03909116815260200161016f565b34801561020757600080fd5b5061012361021636600461148d565b610642565b34801561022757600080fd5b506033546001600160a01b03166101e3565b34801561024557600080fd5b5061012361025436600461148d565b6106bb565b34801561026557600080fd5b5061012361027436600461148d565b610732565b34801561028557600080fd5b506065546101e3906001600160a01b031681565b3480156102a557600080fd5b506102c96102b436600461148d565b60696020526000908152604090205460ff1681565b604051901515815260200161016f565b3480156102e557600080fd5b506068546101e3906001600160a01b031681565b34801561030557600080fd5b5061012361031436600461148d565b6107d0565b6101656103273660046114a8565b610849565b610334610a7b565b60648111156103795760405162461bcd60e51b815260206004820152600c60248201526b08ccaca40e8dede40d0d2ced60a31b60448201526064015b60405180910390fd5b60678190556040518181527f8c4d35e54a3f2ef1134138fd8ea3daee6a3c89e10d2665996babdf70261e2c76906020015b60405180910390a150565b600054610100900460ff16158080156103d55750600054600160ff909116105b806103ef5750303b1580156103ef575060005460ff166001145b6104525760405162461bcd60e51b815260206004820152602e60248201527f496e697469616c697a61626c653a20636f6e747261637420697320616c72656160448201526d191e481a5b9a5d1a585b1a5e995960921b6064820152608401610370565b6000805460ff191660011790558015610475576000805461ff0019166101001790555b61047d610ad5565b606580546001600160a01b038086166001600160a01b0319928316179092556066805492851692821692909217909155601e60675560688054909116331790558015610503576000805461ff0019169055604051600181527f7f26b83ff96e1f2b6a682f133852f6798a09c465da95921460cefb38474024989060200160405180910390a15b505050565b6000806105158585610b04565b60655460405163d06ca61f60e01b81529192506000916001600160a01b039091169063d06ca61f9061054d908790869060040161152f565b600060405180830381865afa15801561056a573d6000803e3d6000fd5b505050506040513d6000823e601f3d908101601f191682016040526105929190810190611566565b905080600182516105a3919061163a565b815181106105b3576105b361164d565b602002602001015192506127106067546127106105d0919061163a565b6105da9085611663565b6105e4919061167a565b9695505050505050565b6105f6610a7b565b6106006000610ce3565b565b61060a610a7b565b60006106168484610d35565b6001600160a01b03166000908152606960205260409020805460ff191692151592909217909155505050565b61064a610a7b565b6001600160a01b0381166106995760405162461bcd60e51b8152602060048201526016602482015275496e76616c696420726f75746572206164647265737360501b6044820152606401610370565b606580546001600160a01b0319166001600160a01b0392909216919091179055565b6106c3610a7b565b6001600160a01b0381166107105760405162461bcd60e51b8152602060048201526014602482015273496e76616c696420574d4f4e206164647265737360601b6044820152606401610370565b606680546001600160a01b0319166001600160a01b0392909216919091179055565b61073a610a7b565b6001600160a01b0381166107825760405162461bcd60e51b815260206004820152600f60248201526e496e76616c6964206164647265737360881b6044820152606401610370565b606880546001600160a01b0319166001600160a01b0383169081179091556040519081527fe5693914d19c789bdee50a362998c0bc8d035a835f9871da5d51152f0582c34f906020016103aa565b6107d8610a7b565b6001600160a01b03811661083d5760405162461bcd60e51b815260206004820152602660248201527f4f776e61626c653a206e6577206f776e657220697320746865207a65726f206160448201526564647265737360d01b6064820152608401610370565b61084681610ce3565b50565b600080831161088f5760405162461bcd60e51b81526020600482015260126024820152710416d6f756e74206d757374206265203e20360741b6044820152606401610370565b836001600160a01b0316856001600160a01b0316036108de5760405162461bcd60e51b815260206004820152600b60248201526a53616d6520746f6b656e7360a81b6044820152606401610370565b6001600160a01b038516610942578234146109305760405162461bcd60e51b8152602060048201526012602482015271125b9d985b1a59081353d388185b5bdd5b9d60721b6044820152606401610370565b61093b848484610ddb565b905061096a565b6001600160a01b03841661095b5761093b858484610f26565b6109678585858561115a565b90505b60006127106067548361097d9190611663565b610987919061167a565b90506000811180156109a157506001600160a01b03851615155b15610a1f5760685460405163a9059cbb60e01b81526001600160a01b039182166004820152602481018390529086169063a9059cbb906044016020604051808303816000875af11580156109f9573d6000803e3d6000fd5b505050506040513d601f19601f82011682018060405250810190610a1d919061169c565b505b60408051858152602081018490529081018290526001600160a01b03808716919088169033907fe2bd3f957a9c89d5a58b7bf40f44d9249375545ef13817461d1c08e7f71e3a459060600160405180910390a450949350505050565b6033546001600160a01b031633146106005760405162461bcd60e51b815260206004820181905260248201527f4f776e61626c653a2063616c6c6572206973206e6f7420746865206f776e65726044820152606401610370565b600054610100900460ff16610afc5760405162461bcd60e51b8152600401610370906116b9565b610600611364565b60606001600160a01b038316610b23576066546001600160a01b031692505b6001600160a01b038216610b40576066546001600160a01b031691505b6000610b4c8484610d35565b6001600160a01b03811660009081526069602052604090205490915060ff1615610c0a57600060025b604051908082528060200260200182016040528015610b9e578160200160208202803683370190505b5090508481600081518110610bb557610bb561164d565b60200260200101906001600160a01b031690816001600160a01b0316815250508381600181518110610be957610be961164d565b6001600160a01b03909216602092830291909101909101529150610cdd9050565b6066546001600160a01b0385811691161480610c3357506066546001600160a01b038481169116145b15610c415760006002610b75565b60408051600380825260808201909252600091602082016060803683370190505090508481600081518110610c7857610c7861164d565b6001600160a01b039283166020918202929092010152606654825191169082906001908110610ca957610ca961164d565b60200260200101906001600160a01b031690816001600160a01b0316815250508381600281518110610be957610be961164d565b92915050565b603380546001600160a01b038381166001600160a01b0319831681179093556040519116919082907f8be0079c531659141344cd1fd0a4f28419497f9722a3daafe3b4186f6b6457e090600090a35050565b6000816001600160a01b0316836001600160a01b031610610d94576040516bffffffffffffffffffffffff19606084811b8216602084015285901b16603482015260480160405160208183030381529060405280519060200120610dd4565b6040516bffffffffffffffffffffffff19606085811b8216602084015284901b166034820152604801604051602081830303815290604052805190602001205b9392505050565b60408051600280825260608201835260009283929190602083019080368337505060665482519293506001600160a01b031691839150600090610e2057610e2061164d565b60200260200101906001600160a01b031690816001600160a01b0316815250508481600181518110610e5457610e5461164d565b6001600160a01b03928316602091820292909201015260655460009116637ff36ab586868533610e86426104b0611704565b6040518663ffffffff1660e01b8152600401610ea59493929190611717565b60006040518083038185885af1158015610ec3573d6000803e3d6000fd5b50505050506040513d6000823e601f3d908101601f19168201604052610eec9190810190611566565b905060008160018351610eff919061163a565b81518110610f0f57610f0f61164d565b602002602001015190508093505050509392505050565b6040516323b872dd60e01b8152336004820152306024820152604481018390526000906001600160a01b038516906323b872dd906064016020604051808303816000875af1158015610f7c573d6000803e3d6000fd5b505050506040513d601f19601f82011682018060405250810190610fa0919061169c565b610fe35760405162461bcd60e51b8152602060048201526014602482015273151c985b9cd9995c88199c9bdb4819985a5b195960621b6044820152606401610370565b60655460405163095ea7b360e01b81526001600160a01b039182166004820152602481018590529085169063095ea7b3906044016020604051808303816000875af1158015611036573d6000803e3d6000fd5b505050506040513d601f19601f8201168201806040525081019061105a919061169c565b5060408051600280825260608201835260009260208301908036833701905050905084816000815181106110905761109061164d565b6001600160a01b0392831660209182029290920101526066548251911690829060019081106110c1576110c161164d565b6001600160a01b039283166020918202929092010152606554600091166318cbafe5868685336110f3426104b0611704565b6040518663ffffffff1660e01b815260040161111395949392919061174c565b6000604051808303816000875af1158015611132573d6000803e3d6000fd5b505050506040513d6000823e601f3d908101601f19168201604052610eec9190810190611566565b6040516323b872dd60e01b8152336004820152306024820152604481018390526000906001600160a01b038616906323b872dd906064016020604051808303816000875af11580156111b0573d6000803e3d6000fd5b505050506040513d601f19601f820116820180604052508101906111d4919061169c565b6112175760405162461bcd60e51b8152602060048201526014602482015273151c985b9cd9995c88199c9bdb4819985a5b195960621b6044820152606401610370565b60655460405163095ea7b360e01b81526001600160a01b039182166004820152602481018590529086169063095ea7b3906044016020604051808303816000875af115801561126a573d6000803e3d6000fd5b505050506040513d601f19601f8201168201806040525081019061128e919061169c565b50600061129b8686610b04565b6065549091506000906001600160a01b03166338ed1739868685336112c2426104b0611704565b6040518663ffffffff1660e01b81526004016112e295949392919061174c565b6000604051808303816000875af1158015611301573d6000803e3d6000fd5b505050506040513d6000823e601f3d908101601f191682016040526113299190810190611566565b90506000816001835161133c919061163a565b8151811061134c5761134c61164d565b60200260200101519050809350505050949350505050565b600054610100900460ff1661138b5760405162461bcd60e51b8152600401610370906116b9565b61060033610ce3565b6000602082840312156113a657600080fd5b5035919050565b80356001600160a01b03811681146113c457600080fd5b919050565b600080604083850312156113dc57600080fd5b6113e5836113ad565b91506113f3602084016113ad565b90509250929050565b60008060006060848603121561141157600080fd5b61141a846113ad565b9250611428602085016113ad565b9150604084013590509250925092565b801515811461084657600080fd5b60008060006060848603121561145b57600080fd5b611464846113ad565b9250611472602085016113ad565b9150604084013561148281611438565b809150509250925092565b60006020828403121561149f57600080fd5b610dd4826113ad565b600080600080608085870312156114be57600080fd5b6114c7856113ad565b93506114d5602086016113ad565b93969395505050506040820135916060013590565b60008151808452602080850194506020840160005b838110156115245781516001600160a01b0316875295820195908201906001016114ff565b509495945050505050565b82815260406020820152600061154860408301846114ea565b949350505050565b634e487b7160e01b600052604160045260246000fd5b6000602080838503121561157957600080fd5b825167ffffffffffffffff8082111561159157600080fd5b818501915085601f8301126115a557600080fd5b8151818111156115b7576115b7611550565b8060051b604051601f19603f830116810181811085821117156115dc576115dc611550565b6040529182528482019250838101850191888311156115fa57600080fd5b938501935b82851015611618578451845293850193928501926115ff565b98975050505050505050565b634e487b7160e01b600052601160045260246000fd5b81810381811115610cdd57610cdd611624565b634e487b7160e01b600052603260045260246000fd5b8082028115828204841417610cdd57610cdd611624565b60008261169757634e487b7160e01b600052601260045260246000fd5b500490565b6000602082840312156116ae57600080fd5b8151610dd481611438565b6020808252602b908201527f496e697469616c697a61626c653a20636f6e7472616374206973206e6f74206960408201526a6e697469616c697a696e6760a81b606082015260800190565b80820180821115610cdd57610cdd611624565b84815260806020820152600061173060808301866114ea565b6001600160a01b03949094166040830152506060015292915050565b85815284602082015260a06040820152600061176b60a08301866114ea565b6001600160a01b039490941660608301525060800152939250505056fea164736f6c6343000816000a",
  "linkReferences": {},
  "deployedLinkReferences": {}
}